:020000040800F2
:100000000000032095050008092000080B200008C7
:100010000D2000080F20000811200008000000003B
:10002000000000000000000000000000A17B0008AC
:100030001320000800000000317C0008AF740008A5
:10004000E5050008E5050008E5050008E5050008E8
:10005000E5050008E5050008E5050008E5050008D8
:10006000E5050008E5050008E5050008E5050008C8
:10007000E5050008E5050008E5050008E5050008B8
:10008000E5050008E5050008E5050008E5050008A8
:10009000E5050008E5050008E5050008E505000898
:1000A000E5050008E5050008E5050008E505000888
:1000B000E5050008E5050008E5050008E505000878
:1000C000E5050008E5050008E5050008E505000868
:1000D000E5050008E5050008E5050008E505000858
:1000E000E5050008E5050008E5050008E505000848
:1000F000E5050008E5050008E5050008E505000838
:10010000E5050008E5050008E5050008E505000827
:10011000E5050008E505000815200008E5050008CC
:10012000E5050008E5050008E5050008E505000807
:10013000E5050008E5050008E5050008E5050008F7
:10014000E5050008E5050008E5050008E5050008E7
:10015000E5050008E5050008E5050008E5050008D7
:10016000E5050008E5050008E5050008E5050008C7
:10017000E5050008E5050008E505000800000000A9
:10018000E5050008E5050008E5050008E5050008A7
:10019000E5050008E5050008E5050008E505000897
:0C01A00021200008E50500082D200008C3
:1001B00010B5054C237833B9044B13B10448AFF3A1
:1001C00000800123237010BD6C010020000000009E
:1001D000E8E9010808B5034B1BB103490348AFF335
:1001E000008008BD0000000070010020E8E901085F
:1001F00001F0FF01102A2BDB10F0070F08D010F8D8
:10020000013B013A8B422DD010F0070F42B3F6D1DB
:10021000F0B441EA012141EA014122F007047FF0F4
:1002200000070023F0E80256083C85EA010586EA4B
:10023000010685FA47F5A3FA87F586FA47F6A5FA87
:1002400087F68EB9EED1F0BC01F0FF0102F0070293
:1002500032B110F8013B013A83EA010313B1F8D13E
:100260000020704701387047002D06BF354603381F
:10027000073815F0010F07D1013015F4807F02BF58
:10028000013015F4C03F0130F0BC0138704700BFA9
:1002900053B94AB9002908BF00281CBF4FF0FF31ED
:1002A0004FF0FF3000F074B9ADF1080C6DE904CEE9
:1002B00000F006F8DDF804E0DDE9022304B0704741
:1002C0002DE9F047089D04468E46002B4DD18A4209
:1002D000944669D9B2FA82F252B101FA02F3C2F13C
:1002E000200120FA01F10CFA02FC41EA030E9440CD
:1002F0004FEA1C48210CBEFBF8F61FFA8CF708FBEE
:1003000016E341EA034306FB07F199420AD91CEBC5
:10031000030306F1FF3080F01F81994240F21C81F7
:10032000023E63445B1AA4B2B3FBF8F008FB10333F
:1003300044EA034400FB07F7A7420AD91CEB040474
:1003400000F1FF3380F00A81A74240F20781644444
:10035000023840EA0640E41B00261DB1D4400023C9
:10036000C5E900433146BDE8F0878B4209D9002D2D
:1003700000F0EF800026C5E9000130463146BDE8B7
:10038000F087B3FA83F6002E4AD18B4202D3824221
:1003900000F2F980841A61EB030301209E46002DD0
:1003A000E0D0C5E9004EDDE702B9FFDEB2FA82F225
:1003B000002A40F09280A1EB0C014FEA1C471FFA83
:1003C0008CFE0126200CB1FBF7F307FB131140EA6A
:1003D00001410EFB03F0884208D91CEB010103F137
:1003E000FF3802D2884200F2CB804346091AA4B2F9
:1003F000B1FBF7F007FB101144EA01440EFB00FECD
:10040000A64508D91CEB040400F1FF3102D2A64531
:1004100000F2BB800846A4EB0E0440EA03409CE7D0
:10042000C6F12007B34022FA07FC4CEA030C20FA7D
:1004300007F401FA06F31C43F9404FEA1C4900FA9D
:1004400006F3B1FBF9F8200C1FFA8CFE09FB18111A
:1004500040EA014108FB0EF0884202FA06F20BD98D
:100460001CEB010108F1FF3A80F08880884240F2DD
:100470008580A8F102086144091AA4B2B1FBF9F021
:1004800009FB101144EA014100FB0EFE8E4508D91C
:100490001CEB010100F1FF346CD28E456AD90238A1
:1004A000614440EA0840A0FB0294A1EB0E01A14286
:1004B000C846A64656D353D05DB1B3EB080261EBF4
:1004C0000E0101FA07F722FA06F3F1401F43C5E9CE
:1004D000007100263146BDE8F087C2F12003D84004
:1004E0000CFA02FC21FA03F3914001434FEA1C4746
:1004F0001FFA8CFEB3FBF7F007FB10360B0C43EA38
:10050000064300FB0EF69E4204FA02F408D91CEBE7
:10051000030300F1FF382FD29E422DD902386344E5
:100520009B1B89B2B3FBF7F607FB163341EA034185
:1005300006FB0EF38B4208D91CEB010106F1FF38D4
:1005400016D28B4214D9023E6144C91A46EA0046CB
:1005500038E72E46284605E70646E3E61846F8E65D
:100560004B45A9D2B9EB020864EB0C0E0138A3E7A6
:100570004646EAE7204694E74046D1E7D0467BE787
:10058000023B614432E7304609E76444023842E7FF
:10059000704700BFDFF834D0002103E00C4B5B58FC
:1005A000435004310B480C4B42189A42F6D30B4A85
:1005B00002E0002342F8043B094B9A42F9D304F0CD
:1005C000DFFA1DF0ABF900F061FF70470000032077
:1005D00088E60608000000206C0100206C01002065
:1005E00038310120FEE7704708B500F02BFDBDE86B
:1005F000084000F0B7BC00F027BD704710B50421DB
:1006000004461DF012F9204610BD000038B50C4B11
:100610000C4C18800C4B822019806368984740F678
:10062000110398420AD1094D23682C608220984713
:100630002B688220DB689847002038BD0120FCE74A
:10064000880100204C0000208A0100208C0100203D
:100650004FF4A071F020FFF7D9BF0000F7B5344D7B
:100660002B6804461B698220984780B220800028AE
:100670004CD02B680DF106025B6901A982209847D6
:10068000BDF8063040F67462934241D9ADF80620B9
:10069000BDF80620C2F56762043292B20A2A3DD93B
:1006A0000B23B2FBF3F2234B1B889A4201D9013B87
:1006B0009AB2BDF8043040F6B8318B4230D8C3F559
:1006C00071630E339BB20F21B3FBF1F31A49098812
:1006D0008B4201D94B1E9BB2184E194D30682F68C2
:1006E000834281B28CBF591AC91AB8B2BA428CBFC0
:1006F000101A801A89B280B201440529C8BF33603C
:100700003368C8BF2A6063802B68A38003B0F0BD44
:10071000B32B9CBFB423ADF80630B9E70022C8E77D
:10072000C3F56D6308339BB20E2BCCD80023D3E7FF
:100730008C0100208A010020880100209001002007
:100740009401002037B568460D461446FFF786FF32
:10075000BDF8000030B1BDF802302B60BDF80430A8
:100760002360012003B030BD032821D8DFE800F06A
:10077000020B12190F4B1A68B2FA82F252090421C5
:100780000D4804F069BE0B4B5A68B2FA82F2520966
:100790000821F5E7074B9A68B2FA82F25209102154
:1007A000EEE7044BDA68B2FA82F252092021E7E759
:1007B000704700BF9801002000100240032821D894
:1007C000DFE800F0020B12190F4B1A68003A18BF4D
:1007D000012204210D4804F03FBE0B4B5A68003A39
:1007E00018BF01220821F5E7074B9A68003A18BFA5
:1007F00001221021EEE7044BDA68003A18BF01220B
:100800002021E7E7704700BF980100200010024058
:1008100003280DD8DFE800F00206080A0421054885
:1008200004F01FBE0821FAE71021F8E72021F6E7BF
:10083000704700BF0010024008B5032811D8DFE858
:1008400000F0020A0C0E0421074804F0FFFD431ECD
:100850005842584108BD0821F6E71021F4E720214D
:10086000F2E70020F3E700BF0010024070B5084D2A
:1008700000240126E0B2FFF7DFFF18B12B68012B3F
:1008800018BF2E600134052C05F10405F2D170BDAE
:1008900098010020012380F8781080F879307047A3
:1008A00000207047034B4164003918BF01211970C3
:1008B000704700BF4326012000207047836B0BB1B7
:1008C0000846184770474FF6FF7070474068036846
:1008D0009B691847704770477047000070B5044621
:1008E00000F080FC2368D3F88850044BD4E90F1241
:1008F0002046AC46BDE87040604700BF000000D015
:1009000008B503680446D3F880309847236820462A
:100910009B6F984700F0ECF8236820461B6F9847C0
:10092000292001F05BF800F0E3F8236820461B6FF4
:100930009847F8E710B5044609F04EFF23682046B3
:10094000D3F8AC30BDE81040184700F03DBC00F0D3
:1009500041BC00F065BC00F013BC00F06DBC00F0C1
:1009600075BC00F017BC09F0A3B910B57C21044692
:100970001CF05BFF204610BD90F87A301BB1406838
:1009800003681B68184718467047000010B590F8B8
:10099000341090F878400C4B8C421A7809D03AB950
:1009A0000A4A0B491488088810800C8001221A70AA
:1009B00010BD002AFCD0054A05491488088810801B
:1009C0000C800022F3E700BF3C26012038260120DE
:1009D0003A26012070B50D46194635B9094B0A4A29
:1009E0000A4840F2D2211CF04FFFC0E90F52084BD9
:1009F000003A18BF01221A700368BDE87040D3F8AE
:100A00008C30184758EA010890EA0108DEEA01082C
:100A10004226012008B5094B1B888B4203D8084B9E
:100A20001B88934205D9074B074A08489E211CF0B2
:100A30002BFF074B1980074B1A8008BD3826012071
:100A40003A26012023EB010886EB0108DEEA0108C3
:100A50003E26012040260120012108B5002208463B
:100A600006F0B3FD0A4B186028B90A4B0A4A282140
:100A70000A481CF009FF00220421012006F04BFE69
:100A8000074B186018B9074B034A2C21F0E708BD43
:100A9000AC010020A4EC0108EDEC01081CED0108FC
:100AA000A80100205AED0108024B4FF0FF311868F1
:100AB00006F0D5BDAC010020014B186806F0FABD68
:100AC000AC010020024B0021186806F0C8BD00BF31
:100AD000AC010020FFF7F0BF034804490068002381
:100AE0001A4606F053BE00BFA801002004000020F3
:100AF00013B5084C00231A4601A9206806F076FEBB
:100B000020684FF0FF33002201A906F06FFE02B00B
:100B100010BD00BFA801002003685B6C18470120CE
:100B2000704703689B6A184782B0002301930D4BFE
:100B30001A6B42F400021A631A6B02F4000201926B
:100B4000019A1A6942F400021A611A6922F4000239
:100B50001A61054B054A1A61054B4FF080629A6095
:100B600002B070470038024064150020B50B000841
:100B700000E100E040F2EF3070470000054B0360F9
:100B8000054B4FF08062C3F88820BFF34F8FBFF34F
:100B90006F8F7047E8EE010800E100E010B50446F1
:100BA0004FF45A61FFF7EAFF20461CF03EFE204654
:100BB00010BD0000024B1B68586803685B6918474A
:100BC0004426012070B5044625460A4B0C30002609
:100BD00060602672667245F8203B6022294609F063
:100BE00039FF04F55A63EE602435AB42FBD1204651
:100BF00070BD00BFE8EE010808B50B290BD8DFE88F
:100C000001F01206100A0A0A0A080808080801205A
:100C100008BD0520FCE7054B054A064865211CF088
:100C200033FE0020F4E70220F2E700BF9CED01084C
:100C3000B7ED010801EE010808B50A2909D8DFE877
:100C400001F010060E080808080606060600012036
:100C500008BD054B054A064886211CF015FE0020FC
:100C6000F6E70220F4E700BF9CED01083DEE010825
:100C700001EE01082DE9F8434F7F0C4639468146C5
:100C8000FFF7BAFF94F81E80054641464846FFF735
:100C9000B3FF414606464846FFF7CEFFA18A628B66
:100CA000424B521A1A649A61228B521A1A61E28AD2
:100CB000586342EA01425A6420696268D863DA6084
:100CC000216894F81CC080294FEA0C6226D010D805
:100CD000202945EA020461D040295FD004295DD073
:100CE000324B2A4342F400324745DA615AD0304A47
:100CF00040E0B1F5807F07D0B1F5007FF0D142F43C
:100D0000003242F0090203E042F4003242F00A02EB
:100D1000DA61E2681A625E6258612AE0A4682A43D6
:100D200042F40032211DD962DA6122785E62586194
:100D300042B1012A21D01F4B1F4A20484FF488712D
:100D40001CF0A2FDDA69618822F47F42013922F0A9
:100D5000100242EA0122DA610120144BDA6942F002
:100D60002002DA61DA699206FCD410229A60002827
:100D7000BDD0134A1A60BDE8F8836288D969541E51
:100D800021F47F4222F0100242EA0422BCF1FF006B
:100D900042F0100218BF0120DA61DEE744F40034AB
:100DA000DC61B8E740F20122E4E700BF00B0024096
:100DB0000102010088EE0108A2EE010801EE01081F
:100DC0000102020070B50C46897FFFF735FFA68A45
:100DD000E18A628B154B2569586341EA0641921BF3
:100DE0005964DD631A642668E168082E0DD19A61A2
:100DF0001A615862207F0E4A42EA0062DA610D4AA7
:100E000019625D61DD601A6070BD0022D8611A61EF
:100E100048090A0A02F4784200F4FC600243C1F374
:100E2000C4010A439A63044AEDE700BF00B00240E0
:100E300009000100010202000102030001207047C5
:100E400038207047382303FB0100083070473823EF
:100E500003FB010008307047012070474FF44370D6
:100E600070474FF4437303FB0100083070474FF4A1
:100E7000437303FB010008307047012070471020C6
:100E8000704700EB01100830704700EB011008308C
:100E90007047084601F042BE10B5034B036004469C
:100EA00008F05DFC204610BDA0EF010810B5044617
:100EB000FFF7F2FF204640211CF0B7FC204610BD92
:100EC00010B5034B0360044608F049FC204610BDF2
:100ED0006CEF010810B50446FFF7F2FF20464FF40F
:100EE00045711CF0A2FC204610BD000010B5034B5C
:100EF0000360044608F033FC204610BD38EF0108BB
:100F000010B50446FFF7F2FF204618211CF08DFCB7
:100F1000204610BD10B5084B0360044600F5507024
:100F2000FFF7BAFF04F12C00FFF7CAFF04F1140029
:100F3000FFF7DCFF204610BDD4EF010808B50248DA
:100F4000FFF7E8FF08BD00BFB401002010B504465C
:100F5000FFF7E0FF20464FF49D611CF066FC204641
:100F600010BD00002DE9F34101F0DAF8054601F06B
:100F7000DBF80024014623462846224600940FF061
:100F800007F8254B254A264D1A60204602F0FCFE44
:100F900024480EF065FF2B78BFF35B8FDB0735D459
:100FA00028461CF044FC88B31F4C204B236004F5FA
:100FB000637604F1140004F12C0804F550776060A6
:100FC000C4F80880E760266108F0CAFB184B63612B
:100FD000404608F0C5FB174BE362384608F0C0FBFB
:100FE000154BC4F8403304F5607002F04DFF224603
:100FF00004F56071304602F03DFF304601F08EFD91
:101000000E481CF05FFC28461CF01DFC0C4802B08A
:10101000BDE8F041FFF762BCA0260120BC1400200F
:10102000B001002008000020B4010020D4EF010826
:1010300038EF01086CEF0108A0EF01083D0F000830
:1010400040140020704700000148FFF759BC00BF62
:101050004014002070B5224E224C234D234B2360B8
:101060003046FFF7AFFD284613F05EFA204B2148CB
:10107000DC6000224FF48071C3E912121E491A8607
:10108000C3E91A121D4999671D4983F858200B605E
:10109000F02101801B485A6601801B4883F87020AC
:1010A0004FF4A071C3E90422C3E90622C3E9082270
:1010B000C3E90A22C3E90E22C3E91022C3E91422BC
:1010C000C3E917225A67C3E9016501800F4801800F
:1010D0000F490A70012283F834200E4A1A6070BD4D
:1010E000A00600209C060020C014002048EA010849
:1010F00040140020382601200100000100000101F9
:10110000442601203E2601203A26012040260120C7
:101110003C260120D4EB01080148FFF72FBD00BF9A
:10112000A00600200020704781807047C180704772
:101130000181704741817047704770477047704721
:10114000704710B4C4880368121B84885B6D091B48
:1011500012B25DF8044B09B218474FF6FF73838152
:101160004FF0FF3303621368C3611060704790F85B
:1011700025201AB190F8242002B1186070470000B1
:10118000034B902283F85A2383F85823704700BFFB
:1011900000E100E0094A0A49D3680A48C3F30A0398
:1011A000013B9BB20B801169C1F30A010139018037
:1011B0001364536B43F001035363704700680140AD
:1011C0004615002044150020014BD3F8AC007047B1
:1011D00000680140024B0122C3F8AC105A6270470C
:1011E0000068014070B5044608F0B7FD23685D6EE5
:1011F0000BF0FAFD01462046A8472368054AD3F8BC
:1012000088502046AC460023BDE87040A2F5163158
:10121000604700BF00B004D008F086BD08F090BD64
:1012200008F04CBD08F0ADBE90F8252012B103685F
:101230005B69184770470000034B4FF080629A606B
:101240004FF080729A60704700E100E0084B4FF069
:101250008062C3F88820BFF34F8FBFF36F8F4FF0CA
:101260008072C3F88820BFF34F8FBFF36F8F704732
:1012700000E100E010B5144C236823B3134B144A6B
:101280001B6C11888B4213D1124B198804F0CAFED3
:10129000226892F86A30013382F86A30FFF71CFC4A
:1012A000206809F099FABDE810400020FFF75CBA09
:1012B00004F0B8FE206803681B6A9847BDE8104038
:1012C0000020FFF77BBA10BD4426012000680140D2
:1012D000461500204415002007B5064BADF8060062
:1012E0001B68054801220DF1060105F0F7FB03B06C
:1012F0005DF804FB10000020D416002008B5012082
:1013000006F057F9FBE700002DE9F7430025DFF869
:10131000B090DFF8B0802F460221484604F096F8DE
:1013200004210446484604F091F8012C06462CD1CD
:1013300022464FF48041404604F08EF85FB90A20FF
:10134000019403F057FC1D483A4600680A2301A99E
:1013500006F01CFA2746012E1FD132464FF40051E9
:10136000404604F079F865B902230A20019303F09E
:1013700041FC12482A4600680A2301A906F006FA31
:101380003546012006F015F9C6E700224FF48041EA
:10139000404604F061F80027DDE708480323019385
:1013A00000220A2301A9006806F0F0F900224FF498
:1013B0000051404604F050F80025E2E750150020A7
:1013C000000002400018024007B50023084CADF8A9
:1013D000063008F099F90A23ADF8060000222068CB
:1013E0000DF1060106F0D2F9012006F0E2F8F0E76F
:1013F0007017002030B595B0102200210AA81CF00B
:10140000CFFA1422002103A81CF0CAFA00241D4BB5
:1014100001941A6C42F080521A641B6C03F08053E2
:101420000193019B184B02941A6842F440421A60DF
:101430001B6803F4404302930122029B4FF4803364
:10144000CDE9082302254FF48003CDE90E5308218E
:101450004FF4A873CDE9101308A804231393129531
:1014600004F0FEFD0F23CDE903354FF4A0504FF4F7
:101470008053CDE90603052103A8059404F0CEFFAF
:1014800015B030BD00380240007000402DE98048A2
:101490009BB003F083FB08F027F9FFF7ABFF1422A2
:1014A00000210DA800241CF07BFAC54B00941A6B98
:1014B000C448C54D42F010021A631A6B02F01002C4
:1014C0000092009A01941A6B42F020021A631A6B80
:1014D00002F020020192019A02941A6B42F08002FB
:1014E0001A631A6B02F080020292029A03941A6B3A
:1014F00042F004021A631A6B02F004020392039A88
:1015000004941A6B42F001021A631A6B02F0010292
:101510000492049A05941A6B42F002021A631A6B41
:1015200002F002020592059A06941A6B42F04002FC
:101530001A631A6B02F040020692069A07941A6B1D
:1015400042F008021A631B6B03F00803079322465C
:101550003C21079B03F080FF9C482246042103F0B6
:101560007BFF9B4822464FF4405103F075FF224613
:1015700098484FF4C04103F06FFF01264FF0030A73
:101580003C239048CDF840A00DA902274FF0040855
:10159000CDE90D360F9403F073FE8C480F940DA91E
:1015A000CDE90D86109703F06BFE06238A480F964F
:1015B0000DA9CDE90D3403F063FE4FF44053844888
:1015C0000DA9CDE90D36CDE90F4703F059FE0DA960
:1015D0004FF4C0437F48CDE90D36CDE90F4403F009
:1015E0004FFE7E487E4B036003F06AFB7D4A7E4BD4
:1015F0002C624FF4804B2846C5E90023C5E902441C
:10160000C5E904B4C5E9064404F010F910212846E0
:1016100004F04CFB2146284604F067FB73487449EC
:1016200084624FF48273C0E900134FF400751823ED
:10163000C0E906530A236F4DC362C0E90244C0E902
:101640000444C0E9084405F0EDF96B4B0D974FF0E9
:10165000100CC5E900364023C5E904C34FF4C0733C
:10166000C5E906344FF400630722C5E908340DA923
:101670004FF400532846AB624FF00809CDE9102A19
:10168000C5E90248CDE90E28CDE9127705F0CAF880
:101690004FF6FF7209A92846CDE90A9608940996E3
:1016A0000C9405F0DFF8304603F0A4FA4FF6FF7211
:1016B00009A92846CDE90979CDE90B6405F0D2F8EE
:1016C0004FF6FF7209A92846CDE909A9CDE90B8497
:1016D00005F0C8F84FF40C720892089A0C9209A908
:1016E0004FF6FF722846CDE909890B9605F0BAF846
:1016F00040F26A51284605F0D3F8342221460DEB1A
:1017000002001CF04DF93D4D3D4AAC86C5E9002470
:101710000922C5E905261D2240F20D1EC5E9072A4A
:1017200040F24312C5E909E2284640F2471240F26E
:10173000171AC5E90BA2C5E902442C6185F83640A9
:1017400004F078FBFF204FF48063F0214FF4A07287
:10175000CDE912040520CDE91430CDE90E14CDE910
:101760001027CDE9164118920DA9224628460D945E
:10177000244DADF864408DF8664004F026FC224A02
:101780002A60126890472A68204DD2689047204A04
:10179000C5E90A47C5E90C442846C5E90024C5E95E
:1017A000027403F09DFA3146284603F051FB1948B4
:1017B000194904614FF4E132C0E900120C222DE016
:1017C0000038024000100240A4150020000802402A
:1017D000000C024000180240000002405C1500208E
:1017E00000300240005C0040A0860100D4160020BA
:1017F00000500140A0160020400100A0F815002074
:10180000006801404C1500201400002064150020E1
:1018100000B002402C17002000100140C0E9052450
:10182000C0E90244C46105F073FDFEF7DDFEFEF77A
:10183000DAFE4FF4005319461B48324603F00CFE03
:1018400032465946184803F007FE05F03DFE174A98
:101850004146484605F05FFF154B164A1860394669
:10186000102005F058FF144B144A18602146144804
:1018700005F056FE134B144A18602146134805F034
:101880004FFE134B134A18602146134805F048FEDB
:10189000124B134A18602146124805F041FE124BC4
:1018A000186005F023FEFEE70018024050F0010822
:1018B00050150020B0F001087017002068F00108F2
:1018C000FD120008541500202CF00108F70500084F
:1018D000481500208CF00108091300085815002055
:1018E000C8F00108C913000874170020704770473A
:1018F0007FB5094B8DF817201B6802930DF1170275
:101900000123009201930A460146044804F036F888
:1019100007B05DF804FB00BF0C000020A4150020F8
:101920007FB500238DF81730084B1B6802930A46D9
:1019300001230DF11701009101930146044804F0C1
:10194000ADF89DF8170007B05DF804FB0C0000200F
:10195000A41500201FB5084C24680092CDE901347D
:101960000A4601230146054804F098F8003818BFDC
:10197000012004B010BD00BF0C000020A415002001
:1019800003F038B908B506480022042103F064FDCD
:10199000BDE8084002480122042103F05DBD00BFFC
:1019A0000008024038B50B4D044601220A484FF4A6
:1019B000005103F051FD00220421284603F04CFDA4
:1019C0002046FFF789FC28460122BDE83840042163
:1019D00003F042BD00080240000C024038B50B4D38
:1019E000044600220A484FF4005103F035FD00225E
:1019F0000421284603F030FD2046FFF76DFC284601
:101A00000122BDE83840042103F026BD0008024051
:101A1000000C0240F7B5144E144F05460C463046F4
:101A20000022042103F018FD00224FF40051384633
:101A300003F012FD2846FFF74FFC0D4B0D481B68C5
:101A4000224601A905F0ECF9384601224FF4005175
:101A5000019C03F001FD30460122042103F0FCFC4F
:101A6000204603B0F0BD00BF00080240000C024059
:101A700010000020D416002003F0BCB80268034B0D
:101A80009A4201D103F0A4B8704700BF0010004093
:101A90007047000082B00E4B00220092596C41F456
:101AA00080415964596C01F4804100910099019280
:101AB000196C41F0805119641B6C03F08053019341
:101AC000019B0F216FF0010002B003F0B9B800BF15
:101AD000003802400268094B9A4282B00BD10023C1
:101AE0000193074B1A6B42F480521A631B6B03F489
:101AF00080530193019B02B0704700BF0030024049
:101B00000038024007B50F4B02689A4216D10022F6
:101B1000A3F5F0430192196B41F4000119631B6BAB
:101B200003F40003019305215A20019B03F088F878
:101B30005A2003B05DF804EB03F0B4B803B05DF8CD
:101B400004FB00BF00B002402DE9F043044689B019
:101B50001422002103A81BF023FF2268244B9A4281
:101B600043D1244C244800250095236B43F0040303
:101B70002363236B03F004030093009B0195236B05
:101B800043F001032363236B03F001030193019BE3
:101B90004FF012094FF400734FF001080327042699
:101BA00003A9CDE90339CDE90587079603F068FB62
:101BB0004FF480731148079603A9CDE90339CDE9A5
:101BC000058703F05DFB0295236C43F40003236457
:101BD000236C03F400030293029B236A43F4000383
:101BE0002362236A23F40003236209B0BDE8F08373
:101BF000005C004000380240000802400000024043
:101C0000F0B599B004461422002107A81BF0C8FEC5
:101C100030220DEB020000211BF0C2FE22685E4B59
:101C20009A4240F0B78008230C93C02310930423FA
:101C300012930CA84FF40033159304F0C9FC08B1BB
:101C4000FFF726FF554B5648002400945A6C42F08B
:101C500080625A645A6C02F080620092009A019489
:101C60001A6B42F020021A631A6B02F020020192F2
:101C7000019A02941A6B42F001021A631A6B02F085
:101C800001020292029A03941A6B42F002021A6352
:101C90001A6B02F002020392039A04941A6B42F048
:101CA00040021A631A6B02F040020492049A0594EF
:101CB0001A6B42F004021A631A6B02F004020592D6
:101CC000059A06941A6B42F008021A631B6B03F024
:101CD0000803069302250E26069B0B964FF480639D
:101CE00007A9CDE90735CDE9094503F0C9FA41F661
:101CF00058032C480B9607A9CDE907350927CDE9EC
:101D0000094503F0BDFA032327480B9707A9CDE93E
:101D10000735CDE9094503F0B3FA4FF47063224863
:101D20000B9607A9CDE90735CDE9094503F0A8FAD7
:101D30004FF40C631D480B9607A9CDE90735CDE993
:101D4000094503F09DFAC02319480B9607A9CDE970
:101D50000735CDE9094503F093FA082315480B969A
:101D600007A9CDE90735CDE9094503F089FA4FF414
:101D7000A0530E480B9707A9CDE90735CDE90945D2
:101D800003F07EFA58202246052102F059FF582020
:101D900002F088FF19B0F0BD006801400038024031
:101DA00000140240000002400004024000180240FB
:101DB00000080240000C024010B5044688B014220E
:101DC000002103A81BF0ECFD2268144B9A4223D19A
:101DD00003F56843002101915A6C114842F48012C6
:101DE0005A645A6C02F480120192019A02911A6BA1
:101DF00042F020021A631B6B03F020030293029B44
:101E00004FF4607202230321CDE903230523CDE9BA
:101E1000061303A903F034FA08B010BD00500140C6
:101E20000014024010B5044688B01422002103A813
:101E30001BF0B6FD2268144B9A4223D103F594336C
:101E4000002101915A6C114842F010025A645A6CF8
:101E500002F010020192019A02911A6B42F0010203
:101E60001A631B6B03F001030293029B4FF4C062E1
:101E700002230321CDE903230723CDE9061303A998
:101E800003F0FEF908B010BD001001400000024050
:101E90002DE9F04186B0002303932B4B1C68002CE6
:101EA0004FD14FF00108C3F80080284B00949A6B83
:101EB000274842EA08029A639B6B03EA08030093EF
:101EC000022703260C25009B01A94FF63F03CDE90D
:101ED0000137CDE9046503F0D3F91E48059501A942
:101EE000CDE90187CDE9034603F0CAF948F233137F
:101EF0001948059501A9CDE90137CDE9034603F05D
:101F0000BFF94FF683731548059501A9CDE901374F
:101F1000CDE9034603F0B4F94CF20373104805957C
:101F200001A9CDE90137CDE9034603F0A9F9602302
:101F30000C48059501A9CDE90137CDE9034603F029
:101F40009FF906B0BDE8F081781700200038024004
:101F50000014024000080240001802400010024035
:101F6000000C02400004024070B588B000230293C8
:101F7000204B1A6C42F010021A641B6C03F0100321
:101F80000293054601A903A8029B04F003FB069BEC
:101F90004BBB04F0DFFA184E184B336040F2E733C6
:101FA000F360174BB0FBF3F3013B73603046002343
:101FB0003361B360B36105F01FF9044680B9304660
:101FC00004F0D4FF044658B9362002F06BFE0F2D02
:101FD0000DD822462946362002F032FE094B1D60FC
:101FE000204608B070BD04F0B5FA4000D3E70124E4
:101FF000F6E700BF003802407C17002000100040C8
:1020000040420F007C0000207047FEE7FEE7FEE73D
:10201000FEE77047014804F0E7BF00BF7C170020CF
:10202000014803F075BF00BFF8150020014802F019
:1020300085BE00BF641500200120704708B51BF065
:1020400055FC162303604FF0FF3008BD08B51BF0A8
:102050004DFC16230360FEE770B50D4614460E4690
:10206000731B9C4201DC204670BDAFF3008006F874
:10207000010BF5E770B50D4614460E46731B9C42E6
:1020800001DC204670BD16F8010BAFF30080F5E7C8
:102090004FF0FF3070474FF400534B600020704703
:1020A00001207047002070470A4A116808B50346AE
:1020B00009B9094911601068694603448B4206D981
:1020C0001BF014FC0C2303604FF0FF3008BD1360BD
:1020D000FCE700BFC417002038310120704710B55D
:1020E000042104461BF0A1FB204610BD08B50329BE
:1020F00013D8DFE801F002060A0E01F091FE006835
:1021000008BD01F08DFE4068FAE701F089FE8068A5
:10211000F6E701F085FEC068F2E70020F0E7000076
:102120000048704700F101082020704713B50024D3
:1021300051B1036801948DF8034001AA9C680DF128
:102140000303A04702B010BD0846FBE7C0897047F3
:10215000008A7047C088704780887047807A00F096
:102160007F007047807AC0097047704710B508211A
:1021700004461BF05AFB204610BD7047704700F51F
:1021800098730868496803C3704770477047416097
:10219000704710B50022B1F90840B1F90A10028069
:1021A00042808480C18010BD70477047064BC0F8E4
:1021B0004C310023C0F8503100F5A273C0F848013B
:1021C000C0F84031704700BFDD25000801230372CD
:1021D00070477047704770477047704701464068C6
:1021E000036810315B6E184770B505464068036898
:1021F000DB69984704464CB1A188AB89C91A2368AA
:1022000020461B6B09B29847A469F4E76868036825
:1022100005F110011B6EBDE870401847014640688B
:10222000036810315B6E184770B505464068036857
:10223000DB69984704464CB1A188AB89C91A236869
:1022400020461B6B09B29847A469F4E768680368E5
:1022500005F110011B6EBDE87040184710B4C2684C
:1022600041685410034601EB6200D20748BF0A5987
:102270009B685DF8044B48BFD358184743682BB19F
:1022800083682BB9C06800F001007047184670479A
:102290000120704710B50C2104461BF0C6FA2046F9
:1022A00010BD10B5102104461BF0BFFA204610BD2A
:1022B00010B54FF4AE7104461BF0B7FA204610BDBE
:1022C00010B5382104461BF0B0FA204610BD10B5F9
:1022D000282104461BF0A9FA204610BD10B538216C
:1022E00004461BF0A2FA204610BD10B50AF07CFD92
:1022F0000368BDE81040DB6B1847000073B5044667
:10230000807A637A0130C0B29842A07205D9012365
:1023100023720023A37202B070BDB4F90C20B4F98B
:102320000E6000210CF0A2FA10F0010283B231D14C
:10233000E081E589A37AAD1B012BADB206D1194B23
:102340001B781BB10AF050FD0AF054FD0023ADF8D4
:102350000030ADF80230E389ADF80430124B1B8831
:10236000ADF806300AF040FD036802AA12E9060043
:102370001B6C984760680368DB6998470446002C2B
:10238000C9D0A1882368294420461B6B09B298470D
:10239000A469F4E74FF6FF710028D8BF0A4613443A
:1023A000E381C6E7422601203A26012073B50446A0
:1023B000807A637A0130C0B29842A07205D90123B5
:1023C00023720023A37202B070BDB4F90C20B4F9DB
:1023D0000E6000210CF04AFA10F0010283B235D1F0
:1023E000E081E589A37AAD1B012BADB206D11B4B71
:1023F0001B781BB10AF0F8FC0AF0FCFC184A002319
:102400001288ADF80230E3891A445B42ADF804301B
:10241000144BADF800201B88ADF806300AF0E4FC40
:10242000036802AA12E906001B6C984760680368FB
:10243000DB6998470446002CC5D0A188236829444D
:1024400020461B6B09B29847A469F4E74FF6FF7169
:102450000028D8BF0A461344E381C2E74226012080
:10246000382601203A26012010B50446D0F8400154
:1024700058B10368DB68984738B1D4F84001036865
:102480009B6898470023C4F8403110BD2DE9F14FF7
:10249000D0E9555A0746A86803681B6A9847B0F503
:1024A000437F05D2454B464AA32146481BF0ECF931
:1024B000686803681B6A98470F2803D8424B404A54
:1024C000A421F2E7E86803681B6A98470B2803D841
:1024D0003E4B3B4AA521E8E70AF086FCDFF8F49082
:1024E00004300AF0E7FCD9F8000010B10368DB689B
:1024F0009847D9F8000010B103681B689847DFF8C7
:10250000D880D8F8000010B103685B699847D7F805
:102510003C0110B103685B689847D8F8000010B11F
:1025200003681B689847D7F83C0110B103689B68A3
:102530009847E868036800215B6A98474FF0000BF2
:10254000234B03600446C0F804B080F808B0A868C4
:10255000036859465B6A9847064602F04FF8686878
:10256000036859465B6A98473146054602F020F8F1
:10257000C9F80040C7F83C51C8F80060E5B12B1D10
:10258000CAF800303368C5F808A03046DB68F56348
:1025900098472B6828461B689847214630460CF020
:1025A0005FF9236820461B69984723685B692046CA
:1025B00001B0BDE8F04F18472B46E1E790F3010862
:1025C0001EF4010822F5010869F501080CF601085E
:1025D000C0FA010884260120802601202DE9F14F50
:1025E000D0E9555A0746A86803681B6A9847B0F5B2
:1025F000B67F05D2454B464AA32146481BF044F915
:10260000686803681B6A98470F2803D8424B404A02
:10261000A421F2E7E86803681B6A98470B2803D8EF
:102620003E4B3B4AA521E8E70AF0DEFBDFF8F490D9
:1026300004300AF03FFCD9F8000010B10368DB68F1
:102640009847D9F8000010B103681B689847DFF875
:10265000D880D8F8000010B103685B699847D7F8B4
:102660003C0110B103685B689847D8F8000010B1CE
:1026700003681B689847D7F83C0110B103689B6852
:102680009847E868036800215B6A98474FF0000BA1
:10269000234B03600446C0F804B080F808B0A86873
:1026A000036859465B6A9847064601F027FC68684C
:1026B000036859465B6A98473146054601F0F8FBC6
:1026C000C9F80040C7F83C51C8F80060E5B12B1DBF
:1026D000CAF800303368C5F808A03046DB68F563F7
:1026E00098472B6828461B689847214630460CF0CF
:1026F000B7F8236820461B69984723685B69204622
:1027000001B0BDE8F04F18472B46E1E790F3010810
:10271000AFF6010822F5010869F501080CF6010879
:10272000C0FA010884260120802601202DE9F0410D
:102730001D460368BDF918701B6B04461646984782
:102740002368314620465B6B98472368294620461C
:102750009B6B9847236839462046DB6BBDE8F04108
:10276000184700002DE9F74FD0E955BA0746DBF8C6
:10277000080003681B6A9847B0F5317F05D2564BB5
:10278000564AA32156481BF07FF8DBF80400036883
:102790001B6A98470F2803D8524B504AA421F1E7EF
:1027A000DBF80C0003681B6A9847372803D84E4BA8
:1027B0004A4AA521E6E70AF017FBDFF8409104300A
:1027C0000AF078FBD9F8000010B10368DB6898477D
:1027D000D9F8000010B103681B689847DFF8208122
:1027E000D8F8000010B103685B699847D7F83C013E
:1027F00010B103685B689847D8F8000010B103680F
:102800001B689847D7F83C0110B103689B6898474C
:10281000DBF80C00036800215B6A9847334B0360C8
:102820004FF4A05303814FF480734363304B036133
:10283000304B1B885A4282812F4A0025B2F9002072
:1028400045608572C581C0E90555C0E90755C0E9F5
:102850000955C0E90B552946044600921BB22A4689
:102860001030FFF763FFDBF80800036829465B6A56
:102870009847064601F0BAFCDBF8040003682946D5
:102880005B6A98473146054601F052FBC9F80040A3
:10289000C7F83C51C8F80060E5B12B1DCAF80030FC
:1028A0003368C5F808A03046DB68F56398472B68A5
:1028B00028461B689847214630460BF0D1FF236815
:1028C00020461B69984723685B69204603B0BDE832
:1028D000F04F18472B46E1E790F30108B3F70108E2
:1028E00022F5010869F501080CF60108E4FA01086F
:1028F000ECF90108382601203A260120842601201F
:10290000802601202DE9F74FD0E955BA0746DBF8BC
:10291000080003681B6A9847B0F5317F05D2564B13
:10292000564AA32156481AF0AFFFDBF804000368AB
:102930001B6A98470F2803D8524B504AA421F1E74D
:10294000DBF80C0003681B6A9847372803D84E4B06
:102950004A4AA521E6E70AF047FADFF84091043039
:102960000AF0A8FAD9F8000010B10368DB689847AC
:10297000D9F8000010B103681B689847DFF8208180
:10298000D8F8000010B103685B699847D7F83C019C
:1029900010B103685B689847D8F8000010B103686D
:1029A0001B689847D7F83C0110B103689B689847AB
:1029B000DBF80C00036800215B6A9847334B036027
:1029C0004FF4A05303814FF480734363304B036192
:1029D000304A314BB2F90020B3F900308381002531
:1029E00045608572C581C0E90555C0E90755C0E954
:1029F0000955C0E90B5529460446009210302A4675
:102A0000FFF794FEDBF80800036829465B6A9847E5
:102A1000064601F0EBFBDBF80400036829465B6A1D
:102A200098473146054601F083FAC9F80040C7F8D7
:102A30003C51C8F80060E5B12B1DCAF8003033687E
:102A4000C5F808A03046DB68F56398472B68284630
:102A50001B689847214630460BF002FF236820464A
:102A60001B69984723685B69204603B0BDE8F04FB7
:102A700018472B46E1E700BF90F30108CAF80108A8
:102A800022F5010869F501080CF6010808FB0108A8
:102A9000ECF901083A26012038260120842601207D
:102AA00080260120044B1B6893F858200AB1D86C8B
:102AB00000B99868704700BF44260120F8B5044665
:102AC00017460E460AF0C4FA104B1C60104B2360E8
:102AD000104B0025C4E951350F4BC4E95355186814
:102AE000036829469B68C4E94F55C4E95576984761
:102AF000284601F049F9FFF7D5FF13F044FBFFF733
:102B0000D1FF13F0BBFB2046F8BD00BF902601208B
:102B10006CFA010854FA010844260120064BC0F85B
:102B20004C310023C0F8503100F5A273C0F84801C1
:102B3000C0F84031704700BFDD250008064BC0F8E3
:102B40004C310023C0F8503100F5A273C0F84801A1
:102B5000C0F84031704700BF65270008064BC0F839
:102B60004C310023C0F8503100F5A273C0F8480181
:102B7000C0F84031704700BF05290008064BC0F877
:102B80004C310023C0F8503100F5A273C0F8480161
:102B9000C0F84031704700BF8D240008406A70477C
:102BA000806A704770478B88C0690A68DB0A50F8F2
:102BB00023001044704710B5C2B1137BB3B1547BEE
:102BC000D27A240204F4E0641443026A98B202EB5D
:102BD000840213888B4202D192F9020010BD05D8FD
:102BE000013880B204320028F3D1F7E70020F5E77E
:102BF00010B52C2104461AF018FE204610BD000026
:102C000030B58BB00446BDF860500895BDF85C50F7
:102C100007959DF8505006959DF84C5005959DF8E8
:102C2000485004959DF8445003959DF840500295F6
:102C30009DF83C500195BDF8385000950BF06AFAAC
:102C4000064B2360159BE361169B2362199B63620D
:102C50001A9BA36220460BB030BD00BF2CFB0108BD
:102C60007047704770477047704790F82C00704766
:102C7000704770477047704730B4C2684468551059
:102C8000034604EB6200D20748BF62599B6830BC20
:102C900048BFD358184743682BB183682BB9C06825
:102CA00000F001007047184670470120704710B5CA
:102CB0004C2104461AF0B9FD204610BD10B5102174
:102CC00004461AF0B2FD204610BD10B54FF4B6719F
:102CD00004461AF0AAFD204610BD08B590F832301F
:102CE0000BB1FEF7A1FA08BD10B50446806A50B1D9
:102CF0000368DB68984730B1A06A036821469B6887
:102D0000BDE81040184710BD70B504460D4607F0E9
:102D1000B1FEA06C58B10368DB68984738B1A06C6D
:102D200003682A4621469B68BDE87040184770BD7D
:102D30009830884208B505D10AF056F8BDE8084039
:102D4000FFF7FCBE08BD70B5036804461B6B154653
:102D500098472368294620465B6BBDE870401847BA
:102D6000002310B5C0E90133C0E90333C0E90733DC
:102D7000C0E905334FF480738384064B03600B88EE
:102D8000C384FF23044680F8283008F0F8F9204671
:102D900010BD00BF740502081A4B73B51B88018F64
:102DA0008B4206462AD9184B1B682BB9174B184A79
:102DB00018486C211AF068FD13F81120164B1B6897
:102DC00053F82250154B186801F01AF82B6801903F
:102DD0009B6B284698472B6801999B6C04462846B4
:102DE00098472B6801995B6A14FB00F428469847C2
:102DF000A4B20444A6F8464002B070BD0023A0F877
:102E00004630F9E7982601209426012084FB01082A
:102E1000C6FB010801FC01089C260120A026012018
:102E20002DE9F04F044685B0A14600250BF06CFB60
:102E30006B4BE56349F8403B6A4B2566C4E91035A6
:102E40004FF48073A4F86430FF2384F8663004F1F3
:102E50006C03184604F1980B03A94FF6FF77C4E9F9
:102E60001255C4E91455C4E91655A5660193ADF889
:102E70000C70FFF775FF584608F0B8FA012604F108
:102E8000E408594AC4F8982003A9C4F8E05084F82B
:102E9000BC6040464FF0FF3AADF80C70FFF760FFA2
:102EA00004F59077514AC4F8E420C4E945A603A983
:102EB000C4F8105184F81C513846ADF80CA0FFF747
:102EC0004FFF4A4AC4F82021494AC4F85461C4E972
:102ED0005724484A84F85851C4E9535AC4E959253B
:102EE00029462A464846FFF72EFF48464FF4A07170
:102EF000FEF71EF94846F021FEF71CF904F1040A1A
:102F00004FF07F42A2664946504606F03BFC019BCB
:102F10006FF0030218466FF00801FFF714FF019BE2
:102F2000022203A91846ADF80C2008F028F9019BED
:102F30005046194606F026FC584664223521FFF714
:102F400002FF03AA02A95846ADF80860ADF80C606C
:102F500007F0FEFF0623A4F8D0305846FFF71CFF09
:102F6000254A264BC4E9352304F5AE73C4F8C030B6
:102F70005946504606F006FC29464046B222FFF765
:102F8000E2FE1A224046182107F063FE40460F2158
:102F900007F072FE334632462946404607F0B1FD3F
:102FA0004146504606F0EEFB384686220C21FFF7DC
:102FB000CAFE13223846112107F04BFE38460C2179
:102FC00007F05AFE334632462946384607F099FD47
:102FD0005046394606F0D6FB204605B0BDE8F08FD6
:102FE000DCFC01080C05020850FC010890040208F2
:102FF000C4FC0108312D0008424242FF9E9E9EFF04
:1030000030B50368018185B06D460146D3F8843040
:1030100004462846984795E807003C3484E80700B2
:1030200005B030BD30B50368418185B06D460146BD
:10303000D3F8843004462846984795E807003C3486
:1030400084E8070005B030BD002202804280828003
:10305000C280704780F83610704770B50368044628
:103060001B6B154698472368294620465B6EBDE8D2
:103070007040184700207047806C70477047704759
:10308000704710B54C2104461AF0CFFB204610BD06
:1030900010B54FF41D7104461AF0C7FB204610BD51
:1030A00008B5FEF7C1F808BD036870B55E6B124B3A
:1030B0001B6804468DB22BB9104B114A6C21114884
:1030C0001AF0E2FB1049828D0988914203D80F4B18
:1030D0000B4A6D21F3E713F812200D4B1B6853F8D0
:1030E000220003681B6B9847281A01B2334620461A
:1030F000BDE87040184700BF9426012084FB0108FA
:10310000C6FB010801FC01089826012008FD010802
:103110009C26012000224FF0FF31C0E9002182608F
:10312000704700000022C0E90122C0E90322C0E983
:103130000522C0E907224FF480728284014A0260AE
:10314000704700BF8CFD010837B54FF6FF7304468A
:103150000D4601A9ADF80430FFF702FE084B2360CD
:103160004FF0FF320023C4E90B322A7884F8342070
:10317000204684F83530E38684F8383003B030BD1B
:103180009004020810B52622044600211AF008FC1B
:103190002046FFF7C7FF0A4BA3624FF6FF73A385D4
:1031A0004FF47F020023C4E90C32064A22604FF03C
:1031B000FF32C4E910232387E363A364204610BDD4
:1031C00088F30108F4FD01082DE9F04F2DED048B83
:1031D000044689B0A04600250BF096F9CD4BE56377
:1031E00048F8403B2622294640461AF0D9FB404683
:1031F000FFF798FFC84B2364FF2384F8663004F17F
:103200006C0304F1980B18464FF6FF7706A9A566E4
:10321000012604F1D40A0193ADF81870FFF7A0FD60
:1032200006A9584604F588798DF81860FFF78CFFD9
:1032300006A950468DF81860FFF786FF06A9484694
:103240008DF81860FFF780FF04F5A67306A91846ED
:1032500008EE103A8DF81860FFF776FF04F5C47396
:1032600006A9184609EE903AADF81870FFF778FDF8
:1032700004F5DA73184608EE903AFFF783FF04F579
:103280000073184609EE103AFFF77CFF2A464046C5
:103290002946FFF758FD40464FF4A071FDF748FF5F
:1032A0004046F021FDF746FF271D4FF07F43414682
:1032B000A366384606F066FA019B6FF003021846D3
:1032C0006FF00601FFF73FFD019B0222184606A999
:1032D000ADF8182007F053FF019B3846194606F059
:1032E00051FAB22229465846FFF72DFD1A2218211D
:1032F000584607F0AEFC0F21584607F0BDFC334698
:1033000032462946584607F0FCFB5946384606F037
:1033100039FA504699220521FFF715FD152250462E
:10332000142107F096FC5046314607F0A5FC2B46C9
:1033300032465046294607F0E4FB5146384684F8A9
:10334000F95006F01FFA484686220C21FFF7FBFCD5
:1033500013224846112107F07CFC48460C2107F057
:103360008BFC334632464846294607F0CAFB49469D
:10337000384606F007FA18EE100A7C22F121FFF712
:10338000E2FC042218EE100A032107F062FC18EE9A
:10339000100A0F2107F070FC3346324618EE100A6F
:1033A000294607F0AEFB18EE101A384606F0EAF987
:1033B000952219EE900ACE21FFF7C5FC0F2319EED6
:1033C000900A06A9ADF8183007F0D9FE19EE901A48
:1033D000384606F0D7F91A2218EE900AE821FFF7CE
:1033E000B2FC4FF07F43C4F8E431D4F8B431A4F810
:1033F000E8510DF10808D3F88430DFF838A118EE51
:10340000901A4046984798E8070004F5F87383E857
:103410000700DAF8003004F513792BB93F4B404A26
:10342000602140481AF030FADFF80CB1BBF80030E8
:10343000042B03D83C4B3A4A6121F2E73B4B042171
:10344000186800F0DDFC3A4A03460A2148460CF0B1
:10345000F9FC18EE900AC4F8FC9107F0FFFCDFF8C5
:10346000DC90CDF81890052318EE900A06A9ADF867
:103470001C3007F013FD18EE901A384606F082F95A
:1034800019EE100A1A220C21FFF75DFCD4F8003265
:10349000A4F834524FF07F424046D3F88430C4F849
:1034A000302219EE101A984798E8070004F50F73B8
:1034B00083E80700DAF8003004F51878002BADD067
:1034C000BBF80030002BB5D0184B2946186800F027
:1034D00097FC174A03460A2140460CF0B3FC19EE4C
:1034E000100AC4F8488207F0B9FC19EE100A06A9C0
:1034F000CDF81890ADF81C6007F0D0FC384619EEF6
:10350000101A06F03FF9204609B0BDEC048BBDE867
:10351000F08F00BF84FE01080C05020884FB01083F
:1035200046FD010801FC010808FD0108A026012054
:103530007EFD0108942601209826012088F30108C9
:10354000806A70477047704770477047704730B463
:10355000C26844685510034604EB6200D20748BFB6
:1035600062599B6830BC48BFD358184743682BB199
:1035700083682BB9C06800F0010070471846704797
:103580000120704710B52C2104461AF04EF9204650
:1035900010BD10B5382104461AF047F9204610BD79
:1035A00010B5102104461AF040F9204610BD10B5A0
:1035B0004FF4427104461AF038F9204610BD0B89C9
:1035C0008A89D21A4B89C988591A12B209B20AF0EB
:1035D00075BD70B504460D4607F04CFA606B58B1E6
:1035E0000368DB68984738B1606B03682A46214658
:1035F0009B68BDE87040184770BD00F518708842A0
:1036000008B505D109F0F0FBBDE80840FFF7A6BA00
:1036100008BD00002DE9F04F2DED0A8B04468BB05C
:10362000A24600250AF070FFEC4BE5634AF8403BE8
:103630002622294650461AF0B3F95046FFF772FD8C
:10364000E74B2364FF2384F8663004F16C034FF6E4
:10365000FF7604F198091846A56608A908EE103A05
:10366000ADF82060FFF77CFB08A94846ADF8206064
:10367000FFF776FBDB4BC4F8983001224FF0FF33A5
:10368000C4E93232D84AC4F8C450C4E9352540F2FE
:103690000112A4F8F82004F580721046C4E93755E9
:1036A000C4E93955C4E93B5584F8D050C4F8FC50FE
:1036B000C4F8F45008A908EE902AADF82030FFF7BE
:1036C0004FFB04F5967308A9184609EE103AADF8B9
:1036D0002060FFF745FB04F5AC7308A9184609EE16
:1036E000903AADF82060FFF73BFB04F5C27308A9E0
:1036F00018460AEE103AADF82060FFF731FB04F5EA
:10370000D87308A918460AEE903AADF82060FFF782
:1037100027FB04F5EE7308A918460BEE103AADF836
:103720002060FFF71DFB04F5027308A918460BEE95
:10373000903AADF82060FFF713FB04F50D7304F524
:10374000187B184608A90CEE103AADF82060FFF778
:1037500007FB2946262258461AF022F95846FFF759
:10376000E1FC04F526784FF00103A04A84F8843286
:103770002946C4F8885284F88C52A4F88E62A4F8C2
:10378000906284F89262C4F86022C4F894522622AF
:1037900040461AF005F94046FFF7C4FC944BC4F8C4
:1037A000C0324FF0FF33C4E9B635924BA4F8C4627F
:1037B000C4E9BE34904BC4F8C8524FF47F02C4E948
:1037C000C035C4F8CC22F0238C4AA4F8D052294644
:1037D0005046C4F89822C4F8D4522A46C4F8E0529D
:1037E00000934FF4A073FEF7A1FF261D4FF07F4317
:1037F000A3665146304605F0C5FF6FF0030218EE90
:10380000100A6FF00601FFF79EFA4FF0020A18EE59
:10381000100A08A9ADF820A007F0B1FC18EE101AA4
:10382000304605F0AFFF294648469F22FFF78BFA46
:103830001A224846182107F00CFA48460F2107F0D3
:103840001BFA01231A462946484607F05AF9494609
:10385000304604F1D40705F095FF29230093272271
:10386000CF233C213846FEF761FF1A2218EE900A5A
:103870001021FFF768FA172318EE900A08A9ADF88F
:10388000203007F07CFC18EE901A384605F07AFFDD
:103890001A2219EE100A2421FFF755FA19EE100A20
:1038A00008A9ADF8205007F06AFC19EE101A384646
:1038B00005F068FF1A2219EE900A3721FFF743FA44
:1038C0001B2319EE900A08A9ADF8203007F057FC29
:1038D00019EE901A384605F055FF1A221AEE100A12
:1038E0004A21FFF730FA4FF016091AEE100A08A91C
:1038F000ADF8209007F043FC1AEE101A384605F098
:1039000041FF1A221AEE900A7921FFF71CFA1C23B4
:103910001AEE900A08A9ADF8203007F030FC1AEE34
:10392000901A384605F02EFF1A221BEE100A8B2142
:10393000FFF709FA1F231BEE100A08A9ADF8203083
:1039400007F01DFC1BEE101A384605F01BFF1A226B
:103950001BEE900A9E21FFF7F6F91BEE900A08A9CC
:10396000ADF8209007F00BFC1BEE901A384605F0DE
:1039700009FF1A221CEE100AB021FFF7E4F91D23FB
:103980001CEE100A08A9ADF8203007F0F8FB1CEE79
:10399000101A384605F0F6FE3946304605F0F2FEBC
:1039A000782291215846FFF7CEF91E2308AA07A9CD
:1039B0005846ADF81C30ADF8203007F0C9FA04F5D0
:1039C0003E73C4F888325946304605F0DBFE562275
:1039D00085214046FFF7B7F912E000BFD4FF010888
:1039E0000C05020890040208B8FE010848FF01080F
:1039F00088F30108BCFF0108FB350008F4FD01084D
:103A00004FF07F43C4F8C832D4F89832A4F8CC52AF
:103A100002AD2846D3F884304146984795E8070020
:103A200004F5357383E807001A4B1B6804F53975F4
:103A30002BB9194B194A6021194819F025FF194B68
:103A40001B88022B03D8184B144A6121F4E7174B4B
:103A50005146186800F0D4F9154A03460A21284651
:103A60000CF0F0F94046C4F8E05207F0F7F9114BBA
:103A7000089308A903234046ADF8243007F00EFA56
:103A80003046414605F07EFE20460BB0BDEC0A8B69
:103A9000BDE8F08F9426012084FB010846FD010853
:103AA00001FC01089826012008FD0108A02601203C
:103AB0007EFD010888F301087047000030B5164DFF
:103AC0002C78BFF35B8F14F001048FB021D128460E
:103AD00019F0ADFEE8B13F230993104B0893104B4A
:103AE000104911480A94CDE9064301220423CDE987
:103AF0000332142200921823CDE90B44CDE901448E
:103B00000594FFF77DF8094819F0DCFE284619F006
:103B10009AFE05480FB030BDC8170020781502087E
:103B200088150208EC130208CC170020B93A0008E7
:103B30007047000030B5174D2C78BFF35B8F14F041
:103B400001048FB022D1284619F071FEF0B13F2355
:103B50000993114B0893114B07930123CDE90533CA
:103B600004930423CDE9024314230D490093062254
:103B70001523CDE90B440B480A940194FFF740F854
:103B8000094819F09FFE284619F05DFE05480FB060
:103B900030BD00BFF81700207C1502088C15020804
:103BA00004150208FC170020313B00087047000094
:103BB00030B5164D2C78BFF35B8F14F001048FB035
:103BC00020D1284619F033FEE0B13F230993104B72
:103BD0000893104B104911480A940122CDE906437D
:103BE0000423CDE903320A230093CDE90B44CDE948
:103BF00001440594FFF704F8094819F063FE2846CC
:103C000019F021FE05480FB030BD00BF2818002074
:103C10008015020890150208581502082C1800207B
:103C2000AD3B00087047000030B5164D2C78BFF34F
:103C30005B8F14F001048FB020D1284619F0F7FDF6
:103C4000E0B13F230993104B0893104B10491148E2
:103C50000A940122CDE906430423CDE90332282347
:103C60000093CDE90B44CDE901440594FEF7C8FF6C
:103C7000094819F027FE284619F0E5FD05480FB060
:103C800030BD00BF581800208415020894150208A2
:103C9000681502085C180020253C000800207047C9
:103CA000002070470EB403B503AB002153F8042B7A
:103CB00001930AF057F802B05DF804EB03B07047C7
:103CC0000CB407B504AB53F8042B01930AF04AF87F
:103CD00003B05DF804EB02B070470000436C10B510
:103CE000044673B3038F2BB9184B194AC5211948E1
:103CF00019F0CAFDC38E00EB43035B8C0BB30BF0D2
:103D0000F8FA238F012B03D8134B144ACB21EEE78B
:103D1000E28E531C9BB2092B194688BFA3F10A01FE
:103D200004EB410140F63F10498C814209D10A2B36
:103D300004EB420228BF002304EB4303508C588459
:103D400051842046BDE810400BF0D6B900000208AF
:103D500009000208B4000208FE0002080C01020873
:103D60000BF091B910B586B002AC84E806001A4693
:103D70000AAB05930193099B00932146089B08F029
:103D8000D1FB06B010BD000038B518BB124B13486C
:103D90001B681349B3B11A689C681A4402605A68D8
:103DA0001A440A601C440F4B00221A8000F038F8B5
:103DB000054600F033F80C4B1C600C4B1D600C4B9F
:103DC000188007E00B4B03600B4B0B600B4B1C6820
:103DD000002CE8D138BD00BF881800208C180020C6
:103DE0009018002094180020942601209C26012081
:103DF00098260120B415020898150208001602083A
:103E0000044B1B6853F82100034B1B6803EB400075
:103E1000704700BF901800208C18002007207047C2
:103E2000004870479818002010B5FFF783FE064C35
:103E30002060FFF7F9FE6060FFF7BAFEA060FFF7B1
:103E40003DFEE06010BD00BF98180020704710B51F
:103E50004FF4AE71044619F0E8FC204610BD10B5D1
:103E60000446D0F8580100F013F82046BDE8104091
:103E700009F07EB810B50446FEF720FE014B236022
:103E8000204610BDE80102080022C0E90022704768
:103E90007047704704387047704710B510210446CA
:103EA00019F0C3FC204610BDA0F10400F5E70000A6
:103EB00010B500228260044AC16002F10804203279
:103EC0000460426010BD00BF340202087047000069
:103ED00010B5034B03600446FEF7CAFE204610BD32
:103EE0006402020810B50446FFF7F2FF20464FF4C3
:103EF000B67119F09AFC204610BD000010B50446BA
:103F0000FEF78EFF014B2360204610BD64020208BD
:103F1000FEF7AFBE704704387047704710B51021E8
:103F2000044619F082FC204610BDA0F10400F5E71C
:103F300010B500228260044AC16002F108042032F8
:103F40000460426010BD00BF90020208704790F804
:103F50003531F0B59BB3B0F91631D0F8A422B0F9E1
:103F60001461D41AB0F8182132440A3A082CD8BF88
:103F7000121BB0F81A419BB203F10A01C8BF083AFC
:103F8000234409B212B2053BD0F894421BB22CBBB9
:103F9000B0F98C71B0F89041B0F98E51B0F892013F
:103FA0003C4424B22844BA4200B222DBA64220DCC0
:103FB000AB421EDB8142CCBF00200120F0BDB0F837
:103FC000DA30B0F9D860B0F8DC20B0F8DE4003F1A8
:103FD0000A01324409B212B22344D5E7B0F9507154
:103FE000B0F85441B0F95251B0F856013C4424B2F3
:103FF000D8E70020E2E7000037B50A4C002520682A
:10400000ADF8065003F021FC38B120684FF0FF33C3
:104010002A460DF1060103F0E9FBBDF9060003B0E5
:1040200030BD00BF7017002037B504461448002586
:104030004FF0FF3300688DF807502A460DF1070155
:1040400003F0D4FB9DF80730012B08D194F8A0228F
:104050001AB9C4F8BC2284F8A03203B030BD022BD8
:1040600007D0032BF9D1012384F8353184F8F950B6
:10407000F3E7012384F8355184F8F930EDE700BF08
:104080005015002010B5034B03600446FEF7F6FF01
:10409000204610BDC402020810B50446FFF7F2FF27
:1040A00020464FF4317119F0C0FB204610BD00F1DD
:1040B000784343F6FE72934210B568D9A3F5804168
:1040C000914266D9A3F50041914264D9A3F54043DA
:1040D000934262D900F1774303F57F014FF6FE72F8
:1040E00091425CD903F57E0102F58032914258D9A4
:1040F00003F57C01914256D903F57A01914254D9D6
:1041000003F57801914252D903F57601914250D9D5
:1041100003F5740191424ED903F5720191424CD9D5
:10412000A0F1016043F6FE71884248D9A0F58044B1
:104130008C4246D9A0F500448C4244D9A0F54040B9
:10414000884242D903F56F004FF6FE7188423ED98E
:1041500003F56E0191423CD903F56C0191423AD9C5
:1041600003F56A01914238D903F56801914236D9C5
:1041700003F56601914234D903F56401914232D9C5
:1041800003F56200904294BF1720002010BD00206C
:10419000FCE70120FAE70220F8E70320F6E7042015
:1041A000F4E70520F2E70620F0E70720EEE7082015
:1041B000ECE70920EAE70A20E8E70B20E6E70C2015
:1041C000E4E70D20E2E70E20E0E70F20DEE7102015
:1041D000DCE71120DAE71220D8E71320D6E7142015
:1041E000D4E71520D2E71620D0E7000010B504462A
:1041F000FEF7EAFF104B23604FF4A0720023C4E9DE
:10420000A4236FF003010122C4E9A621C4F8AC2263
:104210000322C4E9AC23862046217C22C4E9A901FB
:10422000C4E9AE23C4F8743284F8A032C4F88C32E6
:10423000C4F8C032204610BDC4020208F7B50546D6
:1042400016460F4600F0C8FE2846FFF730FF04462A
:1042500005EB8600FFF72BFF124B00221A600222AB
:104260001A61421C121B01A918469C60DA6000F01A
:10427000B3FF044618B100F0CBFE03B0F0BDA64278
:1042800005EB840109DD57F824200023022000F00B
:10429000EDFE0028EFD10134F1E700F0AFFE002081
:1042A000EBE700BFA81800201FB5032201910348C7
:1042B00001A9FFF7C3FF05B05DF804FB00001E086D
:1042C00010B5401A4FF6FF73013A92B20C5841F8FC
:1042D000044B9A42F8D110BD07B50448012201A948
:1042E000FFF7EEFF019803B05DF804FB00001E0825
:1042F00010B50446FEF7C3FE002384F8F9302368A6
:1043000020465B6C9847104AC4F8C00203460A2155
:1043100004F518700BF096FD04F5007009F04CFEE2
:10432000D4F88C32084A0A2104F513700BF08AFD88
:1043300004F5DA7009F040FE4FF4A073A4F88C3154
:10434000A4F8503110BD00BFB8020208D0F8743292
:10435000013310B5C0F8743203689B6B044698476C
:10436000A8B1D4F88C32D4F8C0229342E26BC8BF13
:10437000C4F8C0329268D4F8C012536023689160C8
:104380001B6C2046984708F02FFDFEF7F7FB364BD5
:10439000186803F05AFA014618B123682046DB6A10
:1043A0009847D4E9A432002A50D0012A51D0D4F839
:1043B000B0229B1AC4F89032323337DA2368204691
:1043C000DB6B9847002800F00100B8BF404201288D
:1043D000C4F8940213D123682046DB6B984703236B
:1043E00090FBF3F303EB4303C01A00B2012833D070
:1043F000022835D018B9D4F8B832A4F852314FF4A5
:10440000A073C4F89032D4F8B4320A220133C4F84D
:10441000B432B3FBF2F102FB11333BB9D4F8B03242
:104420000133072BC8BF0723C4F8B03223682046E6
:104430001B6B984794F8A0321BB1236820465B6B36
:104440009847201DBDE8104009F0B6BDA4F88C3196
:10445000ADE7A4F85031AAE7D4F8B832163BCCE760
:10446000D4F8B8321933C8E750150020194AD0F8EB
:1044700074325343B3F1333F98BFD0F88C32D0F845
:10448000C02298BF013370B598BFC0F88C32D0F805
:104490008C329342044600F5187600F5007515DA63
:1044A0000D4A0A2100F513700BF0CCFC04F5DA700C
:1044B00009F082FDD4F8C032074A30460A210BF0D9
:1044C000C1FC2846BDE8704009F076BD002280F8A6
:1044D000D921F1E7CDCCCCCCB8020208F7B504461F
:1044E0000127002680F8F96080F8357100F58870A2
:1044F000019006F0E6FAD4F8BC32D4F8A422019870
:104500003B4403FB03F56FF009016FF0630C4D436F
:1045100095FBFCF54FF0320C1544C4F8BC320CFB93
:1045200003F393FBF1F31D44C4F8AC522DB2AA423D
:1045300003DDA4F8165103B0F0BDA4F816213B46E4
:104540003A46314606F0DDFA84F8A062C4F8AC724F
:10455000F1E738B50D46044609F0C0FE2B792BB9BA
:1045600084F83531012384F8F93038BD012BFCD1B2
:1045700084F835310023F6E738B50D46044609F0D6
:1045800081FE2B79012B02BF0022C4F8BC2284F8E3
:10459000A03238BD704704387047704710B51021FD
:1045A000044619F042F9204610BDA0F10400F5E7D9
:1045B00010B500228260044AC16002F10804203272
:1045C0000460426010BD00BF0C0302087047000089
:1045D00010B5034B03600446FEF7B4FF204610BD40
:1045E0003C03020810B50446FFF7F2FF20464FF4E3
:1045F000437119F01AF9204610BD000010B50446A9
:10460000FFF708F8034B23600023C4F80833204663
:1046100010BD00BF3C03020810B50446FEF793FF2F
:10462000E36B064A9B685B68C4F8083304F539708D
:104630000A21BDE810400BF005BC00BFB80202081B
:10464000F02070474FF4A07070472920FDF7C6B9DD
:104650002820FDF7C3B908B5FDF794F9CA20FDF786
:10466000BDF9C320FDF79EF90820FDF79BF9502006
:10467000FDF798F9CF20FDF7B1F90020FDF792F989
:10468000C120FDF78FF93020FDF78CF9ED20FDF703
:10469000A5F96420FDF786F90320FDF783F91220C0
:1046A000FDF780F98120FDF77DF9E820FDF796F907
:1046B0008520FDF777F90020FDF774F97820FDF7E4
:1046C00071F9CB20FDF78AF93920FDF76BF92C2021
:1046D000FDF768F90020FDF765F93420FDF762F970
:1046E0000220FDF75FF9F720FDF778F92020FDF7AC
:1046F00059F9EA20FDF772F90020FDF753F900207F
:10470000FDF750F9B120FDF769F90020FDF74AF9EE
:104710001B20FDF747F9B620FDF760F90A20FDF7E9
:1047200041F9A220FDF73EF9C020FDF757F910200E
:10473000FDF738F9C120FDF751F91020FDF732F9E6
:10474000C520FDF74BF94520FDF72CF91520FDF7A5
:1047500029F9C720FDF742F99020FDF723F936200B
:10476000FDF73CF9C820FDF71DF9F220FDF736F9F9
:104770000020FDF717F9B020FDF730F9C220FDF752
:1047800011F9B620FDF72AF90A20FDF70BF9A72049
:10479000FDF708F92720FDF705F90420FDF702F9D8
:1047A0002A20FDF71BF90020FDF7FCF80020FDF79B
:1047B000F9F80020FDF7F6F8EF20FDF7F3F82B20CD
:1047C000FDF70CF90020FDF7EDF80020FDF7EAF801
:1047D0000120FDF7E7F83F20FDF7E4F8F620FDF7AC
:1047E000FDF80120FDF7DEF80020FDF7DBF80620DC
:1047F000FDF7D8F82C20FDF7F1F8C820FDF73CF9BB
:104800002620FDF7EBF80120FDF7CCF8E020FDF7BE
:10481000E5F80F20FDF7C6F82920FDF7C3F824209E
:10482000FDF7C0F80C20FDF7BDF80E20FDF7BAF833
:104830000920FDF7B7F84E20FDF7B4F87820FDF712
:10484000B1F83C20FDF7AEF80920FDF7ABF81320D6
:10485000FDF7A8F80520FDF7A5F81720FDF7A2F849
:104860001120FDF79FF80020FDF79CF8E120FDF7EF
:10487000B5F80020FDF796F81620FDF793F81B20F9
:10488000FDF790F80420FDF78DF81120FDF78AF868
:104890000720FDF787F83120FDF784F83320FDF776
:1048A00081F84220FDF77EF80520FDF77BF80C200B
:1048B000FDF778F80A20FDF775F82820FDF772F863
:1048C0002F20FDF76FF80F20FDF76CF81120FDF792
:1048D00085F8C820FDF7D0F82920FDF77FF8BDE85E
:1048E00008402C20FDF77AB808B5FDF74BF80321F6
:1048F000D320FDF78FF880B208BD10B5C4B20222F4
:1049000003212046FCF7F4FF0A20FDF739F8204682
:1049100000220321FCF7ECFFBDE810400220FDF768
:104920002FB838B50446E4B2FCF7E0FF002120467A
:10493000FCF7F6FF012105462046FCF7F1FF40EAAF
:10494000052080B238BD10B5C4B240212046FCF726
:10495000E7FF030607D54C212046FCF7E1FF0038AE
:1049600018BF012010BD01224B212046FCF7C0FFDB
:10497000204600224B21FCF7BBFF0020F2E773B575
:104980000423C4B20E461546D7210DEB0302204680
:10499000FCF7E0FF019B1BBA1A0DC3F30B23328017
:1049A00020462B8001224B21FCF7A2FF00224B2145
:1049B0002046FCF79DFF02B070BD000010B50A4B09
:1049C0001A78904204460DD0597888420AD00AB12C
:1049D00041B901229C54FCF789FF2046BDE81040F4
:1049E000FFF78BBF10BD00BFBC18002010B5C4B2CC
:1049F00009212046FCF794FF40F00100C2B20921D2
:104A00002046BDE81040FCF773BF10B5C4B20921C1
:104A10002046FCF785FF092100F0FE022046BDE894
:104A20001040FCF765BF38B5C4B20D4620460A21D8
:104A3000FCF776FF2843C2B20A212046BDE8384081
:104A4000FCF756BF07B50190FCF751FF01981F21F5
:104A5000FFF7E9FF019803B05DF804EBFFF7C6BF6D
:104A600038B5C4B20D4620460A21FCF759FF20EAAA
:104A70000500C2B20A212046BDE83840FCF738BF25
:104A800010B50446FFF7C1FF20461F21BDE81040C6
:104A9000FFF7E6BF10B5C0B20C460B21FCF740FF94
:104AA000204010BD1F21FFF7F5BF0A46C0B20B2101
:104AB000FCF71EBF1F21FFF7F8BF38B5C4B20D4683
:104AC00020461721FCF72CFF20EA0500C2B217216F
:104AD0002046BDE83840FCF70BBF70B5C4B20646AF
:104AE00004212046FCF71CFF042100F0FB020546D0
:104AF0002046FCF7FDFE3046F021FFF7DEFF05F013
:104B0000F80220460421FCF7F3FE4922202120462A
:104B1000FCF7EEFE0220FCF733FF204601222121A4
:104B2000FCF7E6FE20469A224121FCF7E1FE2046F2
:104B300001224A21FCF7DCFE204601224B21FCF732
:104B4000D7FE204600224B21FCF7D2FE2046012250
:104B50005621FCF7CDFE204601225821FCF7C8FE65
:104B6000204601224021FCF7C3FE2046FF220B21F4
:104B7000FCF7BEFEBDE870400220FCF701BF00005C
:104B8000054BD3F8882042F47002C3F888204FF018
:104B900000629A60704700BF00ED00E008B50B4B63
:104BA0001A6842F400721A601A6842F480621A604D
:104BB0001A6842F480721A60032000F02FF8002077
:104BC000FDF7D2F9FCF766FF002008BD003C02406B
:104BD000034A044B11681B780B441360704700BFF5
:104BE000C018002078000020014B1868704700BFF3
:104BF000C018002038B50446FFF7F6FF631C1CBF41
:104C0000054B1B78054618BFE418FFF7EDFF431B63
:104C1000A342FAD338BD00BF780000200749CA6814
:104C200022F4E0620302120403F4E063120C134363
:104C300043F0BF6343F40033CB60704700ED00E006
:104C4000164B30B5DC68C4F30224C4F10705231DFC
:104C5000042D28BF0425062B4FF0FF338CBF033CE7
:104C6000002403FA05F521EA0501A34022EA030224
:104C7000A140002841EA0203ACBF00F16040084AAD
:104C80004FEA0313B8BF00F00F00DBB2AABF00F574
:104C90006140135480F8003330BD00BF00ED00E0E8
:104CA00014ED00E0002808DB4209012300F01F009A
:104CB00003FA00F0014B43F82200704700E100E0E6
:104CC00010B5044650B1437903F0FF0213B90271E5
:104CD000FCF700FF01236371002010BD0120FCE7F9
:104CE00010B5044630B390F8393003F0FF021BB919
:104CF00080F83820FCF706FF22686168022384F8F8
:104D00003930136823F440330B431360536BA168AD
:104D100023F007030B435363136CE16823F47F53C1
:104D200023F03F030B43136400200123E06384F866
:104D3000393010BD0120FCE770477047036870B53B
:104D40005E681D68F207044614D5E90512D51A6895
:104D500022F480721A60C26B42F00102C263012227
:104D60009A60042380F83930002380F83830436992
:104D700003B19847B20616D5AB0414D523681A6858
:104D800022F400521A6020229A60E36B43F002037F
:104D9000E363042384F83930002384F838306369EE
:104DA0000BB120469847300716D5290514D523683E
:104DB0001A6822F400621A6008229A60E36B43F0DA
:104DC0000403E363042384F83930002384F8383083
:104DD00063690BB12046984772070BD56B0509D55F
:104DE00023681A6822F480621A6004229A602046BE
:104DF000FFF7A2FFB00714D5A90512D523681A68DA
:104E000022F400721A6002229A60E36BE3630123CA
:104E100084F83930002384F8383023690BB12046F8
:104E20009847F20613D5EB0411D523681A6822F4CB
:104E300080521A6010229A60E36BE363012384F8C6
:104E40003930002384F838302046FFF776FF70BDF4
:104E5000F0B590F83830012B4FF002032BD001222F
:104E600080F8393080F8382000EB0113D3E907428D
:104E70005D6A184F44EA0242093C012C9CBF05F0D0
:104E80007F431A434FEA0116036888BF42EA05626E
:104E900099B9596A39400A435A62012C82699A6168
:104EA00003D8426A22F07F429A62012380F83930A7
:104EB000002380F838301846F0BDD96939400A43DC
:104EC000DA618219012C92691A619CBF25F07F4535
:104ED0001D62EAE7F0FFFC00094910B50C6924F4F3
:104EE00040740C610C6944F440740C610C6944F02A
:104EF00001040C610260BFF36F8F436010BD00BFFF
:104F0000003C0240074B1A6922F440721A611A6988
:104F100042F400721A611A6942F001021A610160DA
:104F2000704700BF003C0240074B1A6922F44072F0
:104F30001A611A6942F480721A611A6942F0010218
:104F40001A610180704700BF003C0240204BDA68C4
:104F5000D00606D51F49CA6942F01002CA61102264
:104F6000DA60DA68910606D51A49CA6942F0080281
:104F7000CA612022DA60164BDA68520606D5154956
:104F8000CA6942F00402CA614022DA60DA68100697
:104F900006D51049CA6942F00202CA618022DA606D
:104FA0000B4BDA68D10507D50A49CA6942F00102FC
:104FB000CA614FF48072DA60DA68920706D5054953
:104FC000CA6942F02002CA610222DA60704700BF5B
:104FD000003C0240C4180020064B1A69002ABFBFDB
:104FE000054A5A6002F188325A60BABF1869C00F88
:104FF00000207047003C024023016745034A1369C3
:1050000043F0004313610020704700BF003C0240A2
:10501000014BD869704700BFC4180020114B70B510
:1050200000220446DA61FFF7DFFD0F4D0646EB680C
:10503000DA030CD4EB68DB0744BF0123EB60E868BC
:1050400010F4F97007D0FFF781FF012003E0611C25
:10505000EDD00CB9032070BDFFF7C6FD801BA04248
:10506000E5D9F7E7C4180020003C0240F7B5204E10
:1050700001931446327E012A07460D4635D001229F
:105080004CF250303276FFF7C9FFB8B9019BCFB967
:10509000184B1A6922F440721A611A691A611A6966
:1050A000E4B242F001021A612C704CF25030FFF76A
:1050B000B5FF104A136923F001031361002333760F
:1050C00003B0F0BD012F04D1A1B22846FFF72CFF99
:1050D000EBE7022F04D121462846FFF713FFE4E750
:1050E00022462846FFF7F8FEDFE70220E8E700BF88
:1050F000C4180020003C02400C4B1A6922F4407294
:105100001A6103291A690BD142F4004242F00402E9
:105110001A611A6942EA002040F480301861704731
:105120000129F3D042F40042F2E700BF003C024004
:1051300039B101291FD002290CBF4FF400714FF47F
:1051400040710E4B1A6922F440721A611A691143B8
:1051500019611A6922F0F8021A611A690B2888BFCE
:10516000043042EAC00040F0020018611A6942F4BB
:1051700080321A6170474FF48071E2E7003C0240D0
:10518000144B1A6891050FD51A6822F400721A6040
:105190001A6842F400621A601A6822F400621A6007
:1051A0001A6842F400721A600A4B1A6852050FD549
:1051B0001A6822F480621A601A6842F480521A60F7
:1051C0001A6822F480521A601A6842F480621A60E7
:1051D000704700BF003C02402DE9F843DFF89C8097
:1051E00098F81830012B05460F4642D001234CF2A7
:1051F000503088F81830FFF711FF0446B8B94FF067
:10520000FF333B602B68012B17D16968287CFFF7BF
:1052100073FF4CF25030FFF701FF174A136923F474
:10522000004323F0040304461361FFF7A9FF0023A2
:1052300088F818302046BDE8F883AE68DFF838906B
:10524000D5E902231344B342EFD9297C3046FFF756
:105250006FFF4CF25030FFF7E1FED9F8103023F029
:10526000FA03C9F8103010B13E600446DDE701369C
:10527000E6E70224DEE700BF003C0240C41800203D
:105280002DE9F74FDFF8C0916D4A00230D68012426
:105290009C4004EA050CAC4340F0B9804D6805F031
:1052A00003044FEA43080326671E06FA08F6012F97
:1052B0006FEA060634D8876807EA060ECF6807FA51
:1052C00008F747EA0E078760476827EA0C0EC5F320
:1052D00000179F4047EA0E074760C76807EA060EB7
:1052E0008F6807FA08F747EA0E07022CC76019D142
:1052F0004FEAD30A00EB8A0A03F0070BDAF82070B2
:105300004FEA8B0B4FF00F0E0EFA0BFE27EA0E0E34
:105310000F6907FA0BF747EA0E07CAF8207001E099
:10532000032CDAD1076804FA08F43E40264315F44A
:10533000403F06606BD04FF0000ACDF804A0D9F8CA
:105340004460404C46F48046C9F84460D9F8446053
:1053500006F480460196019E23F0030606F180467E
:1053600006F59C3603F0030ED6F808804FEA8E0E41
:105370000F2707FA0EF7A04228EA07074ED004F5D8
:105380008064A0424CD004F58064A0424AD004F569
:105390008064A04248D004F58064A04246D004F561
:1053A0008064A04244D004F58064A04242D004F559
:1053B0008064A04240D004F58064A0423ED004F551
:1053C0008064A0420CBF09240A2404FA0EF43C4372
:1053D000B46094686FEA0C06EF0254BF34404CEAA4
:1053E00004049460D468AF0254BF34404CEA04040F
:1053F000D4605468AF0354BF34404CEA0404546092
:105400001468ED0354BF34404CEA040414600133C3
:10541000102B7FF43BAF03B0BDE8F08F5446D4E7C8
:105420000124D2E70224D0E70324CEE70424CCE70A
:105430000524CAE70624C8E70724C6E70824C4E70A
:10544000003C01400000024000380240036919425C
:1054500014BF0120002070470AB181617047090420
:10546000FBE7436901EA030221EA030141EA024141
:105470008161704701684B6913F480634FF000024B
:1054800010D06FF480634B612023026380F83D30BD
:1054900080F83E20036C80F83C2043F00403036452
:1054A00001207047184670472DE9F84606460F461A
:1054B00091461D464FEA114A3368BAF1010F0CBFFD
:1054C0005C699C6927EA0404A4B2B4FA84F4640910
:1054D000A14501D0002017E06A1CEED0FFF784FB45
:1054E000089BC01AA84201D8002DE5D10023202234
:1054F000336386F83D2086F83E30326C86F83C30C7
:1055000042F0200232640120BDE8F8862DE9F04126
:1055100004460F46164698462568686927EA000043
:1055200080B2B8B16B695A0516D52B6843F4007385
:105530002B606FF480636B6120220023236384F867
:105540003D2084F83E30226C42F00402226484F84C
:105550003C300120BDE8F081731CDED0FFF744FB36
:10556000A0EB0800B04201D8002ED5D100232022A4
:10557000236384F83D2084F83E30226C42F0200200
:10558000E4E770B504460D46164621684B6913F0F2
:10559000400301D0002010E04A69D2060ED56FF01A
:1055A00010024A612022236384F83D2084F83E30B3
:1055B000226C226484F83C30012070BDFFF714FB9C
:1055C000801BA84201D8002DDFD1002320222363B5
:1055D00084F83D2084F83E30226C42F02002E8E757
:1055E00070B504460D46164623685B695B0701D516
:1055F000002070BD2046FFF73DFFA8B96A1CF3D01C
:10560000FFF7F2FA801BA84201D8002DECD100234D
:105610002022236384F83D2084F83E30226C84F8F5
:105620003C3042F0200222640120E2E770B50446DB
:105630000D46164623685B691B0601D5002070BD28
:105640002046FFF717FFA8B96A1CF3D0FFF7CCFA82
:10565000801BA84201D8002DECD100232022236317
:1056600084F83D2084F83E30226C84F83C3042F0CF
:10567000200222640120E2E72DE9F043154602688A
:1056800085B0DDE90C789946136843F480731360A4
:105690000E463B46CDF8008000224FF00111044633
:1056A000FFF702FF236838B11B68DB0502D54FF412
:1056B0000073236403200AE006F0FE061E61194908
:1056C00043463A462046FFF721FF18B1012005B0B6
:1056D000BDE8F083236803905A6903929B690393A2
:1056E000424639462046039BFFF7A0FF40B1236C9A
:1056F000042B01BF2268136843F400731360E5E7CD
:10570000B9F1010F236802D1EDB21D61DFE72A0A6A
:105710001A61394642462046FFF788FF0028E6D145
:105720002368F1E7020001002DE9FF479A4603686C
:1057300015461A6842F480621A601A68DDE90C782E
:1057400042F480721A600E463B46CDF8008000227B
:105750004FF001110446FFF7A7FE236848B11B680C
:10576000DB0502D54FF400732364032004B0BDE8C9
:10577000F0875FFA86F906F0FE061E612A49434665
:105780003A462046FFF7C2FE08B10120EEE7236843
:1057900003905A6903929B69039342463946204617
:1057A000039BFFF743FF40B1236C042B01BF22682A
:1057B000136843F400731360E7E7BAF1010F23683D
:1057C0001AD1EDB21D61424639462046FFF72EFF41
:1057D0000028E9D12268136843F4807313604FF006
:1057E00001110246CDF800803B462046FFF75CFEE3
:1057F000226860B11368B3E72A0A1A613946424643
:105800002046FFF713FF0028CED12368D9E749F0DF
:1058100001031361044943463A462046FFF776FEEA
:10582000003818BF0120A1E70200010070B504464E
:1058300008B9012070BD90F83D3003F0FF021BB99C
:1058400080F83C20FCF780F9242384F83D3023685D
:105850001A6822F001021A601A6842F400421A60C3
:105860001A6822F400421A6000F074FE3F4B65682B
:105870009D4294BF3E4B3F4B98428CBF0023012377
:10588000002BD6D12268394E53683B49B0FBF1F169
:1058900023F03F030B43B542536088BF4FF4967625
:1058A000136A88BF714323F03F0384BF4FF47A76B5
:1058B000B1FBF6F1013119431162D169431E2B4846
:1058C00021F44F41854221F0FF0132D86D0040F6AE
:1058D000FC70B3FBF5F30133034242D0C3F30B0377
:1058E0000B43D361D4E907301168034321F0C001B1
:1058F0000B4313609168D4E9030321F4034103438C
:1059000021F0FF010B439360D4E90530D1680343D4
:1059100021F0FF010B43D360136843F001031360D0
:1059200000202023206484F83D30206384F83E006A
:1059300080E7A06850B905EB4505B3FBF5F30133EB
:10594000C3F30B037BB143F40043C9E7192045437C
:10595000B3FBF5F30133C3F30B0323B143F440432B
:10596000BEE70423BCE70123BAE700BFA08601001D
:105970007F841E00FF083D0040420F002DE9F743E1
:10598000044699460C9E0F469046FFF72DF994F871
:105990003D30202B054603D0022003B0BDE8F08344
:1059A00000903C49192301222046FFF77DFD002885
:1059B000F2D194F83C30012BEED02068012384F81A
:1059C0003C300368D9075EBF036843F001030360FE
:1059D000036823F400630360212384F83D304023EF
:1059E00084F83E30002323640A9B6362BDF82C30A8
:1059F0006385638D2385284BE362CDE900654B46C3
:105A0000424639462046FFF737FE00282AD00120BB
:105A1000C3E7FFF70BFE40B1236C042B01BF2268E4
:105A2000136843F400731360F1E7636A27681A464A
:105A300012F8011B39616262628D218D013A92B2C6
:105A400062857A69481E80B2520720850AD548B11E
:105A50005A783A6102336362638D013B02399BB22B
:105A600021856385238D2A4631462046002BD0D1DF
:105A7000FFF7B6FD0028CFD12268136843F4007306
:105A80001360202384F83D3084F83C0084F83E0005
:105A900083E700BF020010000000FFFF2DE9F04384
:105AA000044687B09946109F0D469046FFF79CF834
:105AB00094F83D30202B064604D00225284607B036
:105AC000BDE8F08300907649192301222046FFF7B4
:105AD000EBFC0028F1D194F83C30012BEDD020688C
